{
  "contractName": "StarNotary",
  "abi": [
    {
      "inputs": [],
      "stateMutability": "nonpayable",
      "type": "constructor"
    },
    {
      "anonymous": false,
      "inputs": [
        {
          "indexed": true,
          "internalType": "address",
          "name": "owner",
          "type": "address"
        },
        {
          "indexed": true,
          "internalType": "address",
          "name": "approved",
          "type": "address"
        },
        {
          "indexed": true,
          "internalType": "uint256",
          "name": "tokenId",
          "type": "uint256"
        }
      ],
      "name": "Approval",
      "type": "event"
    },
    {
      "anonymous": false,
      "inputs": [
        {
          "indexed": true,
          "internalType": "address",
          "name": "owner",
          "type": "address"
        },
        {
          "indexed": true,
          "internalType": "address",
          "name": "operator",
          "type": "address"
        },
        {
          "indexed": false,
          "internalType": "bool",
          "name": "approved",
          "type": "bool"
        }
      ],
      "name": "ApprovalForAll",
      "type": "event"
    },
    {
      "anonymous": false,
      "inputs": [
        {
          "indexed": true,
          "internalType": "address",
          "name": "from",
          "type": "address"
        },
        {
          "indexed": true,
          "internalType": "address",
          "name": "to",
          "type": "address"
        },
        {
          "indexed": true,
          "internalType": "uint256",
          "name": "tokenId",
          "type": "uint256"
        }
      ],
      "name": "Transfer",
      "type": "event"
    },
    {
      "inputs": [
        {
          "internalType": "address",
          "name": "to",
          "type": "address"
        },
        {
          "internalType": "uint256",
          "name": "tokenId",
          "type": "uint256"
        }
      ],
      "name": "approve",
      "outputs": [],
      "stateMutability": "nonpayable",
      "type": "function"
    },
    {
      "inputs": [
        {
          "internalType": "address",
          "name": "owner",
          "type": "address"
        }
      ],
      "name": "balanceOf",
      "outputs": [
        {
          "internalType": "uint256",
          "name": "",
          "type": "uint256"
        }
      ],
      "stateMutability": "view",
      "type": "function",
      "constant": true
    },
    {
      "inputs": [
        {
          "internalType": "uint256",
          "name": "tokenId",
          "type": "uint256"
        }
      ],
      "name": "getApproved",
      "outputs": [
        {
          "internalType": "address",
          "name": "",
          "type": "address"
        }
      ],
      "stateMutability": "view",
      "type": "function",
      "constant": true
    },
    {
      "inputs": [
        {
          "internalType": "address",
          "name": "owner",
          "type": "address"
        },
        {
          "internalType": "address",
          "name": "operator",
          "type": "address"
        }
      ],
      "name": "isApprovedForAll",
      "outputs": [
        {
          "internalType": "bool",
          "name": "",
          "type": "bool"
        }
      ],
      "stateMutability": "view",
      "type": "function",
      "constant": true
    },
    {
      "inputs": [],
      "name": "name",
      "outputs": [
        {
          "internalType": "string",
          "name": "",
          "type": "string"
        }
      ],
      "stateMutability": "view",
      "type": "function",
      "constant": true
    },
    {
      "inputs": [
        {
          "internalType": "uint256",
          "name": "tokenId",
          "type": "uint256"
        }
      ],
      "name": "ownerOf",
      "outputs": [
        {
          "internalType": "address",
          "name": "",
          "type": "address"
        }
      ],
      "stateMutability": "view",
      "type": "function",
      "constant": true
    },
    {
      "inputs": [
        {
          "internalType": "address",
          "name": "from",
          "type": "address"
        },
        {
          "internalType": "address",
          "name": "to",
          "type": "address"
        },
        {
          "internalType": "uint256",
          "name": "tokenId",
          "type": "uint256"
        }
      ],
      "name": "safeTransferFrom",
      "outputs": [],
      "stateMutability": "nonpayable",
      "type": "function"
    },
    {
      "inputs": [
        {
          "internalType": "address",
          "name": "from",
          "type": "address"
        },
        {
          "internalType": "address",
          "name": "to",
          "type": "address"
        },
        {
          "internalType": "uint256",
          "name": "tokenId",
          "type": "uint256"
        },
        {
          "internalType": "bytes",
          "name": "_data",
          "type": "bytes"
        }
      ],
      "name": "safeTransferFrom",
      "outputs": [],
      "stateMutability": "nonpayable",
      "type": "function"
    },
    {
      "inputs": [
        {
          "internalType": "address",
          "name": "operator",
          "type": "address"
        },
        {
          "internalType": "bool",
          "name": "approved",
          "type": "bool"
        }
      ],
      "name": "setApprovalForAll",
      "outputs": [],
      "stateMutability": "nonpayable",
      "type": "function"
    },
    {
      "inputs": [
        {
          "internalType": "uint256",
          "name": "",
          "type": "uint256"
        }
      ],
      "name": "starsForSale",
      "outputs": [
        {
          "internalType": "uint256",
          "name": "",
          "type": "uint256"
        }
      ],
      "stateMutability": "view",
      "type": "function",
      "constant": true
    },
    {
      "inputs": [
        {
          "internalType": "bytes4",
          "name": "interfaceId",
          "type": "bytes4"
        }
      ],
      "name": "supportsInterface",
      "outputs": [
        {
          "internalType": "bool",
          "name": "",
          "type": "bool"
        }
      ],
      "stateMutability": "view",
      "type": "function",
      "constant": true
    },
    {
      "inputs": [],
      "name": "symbol",
      "outputs": [
        {
          "internalType": "string",
          "name": "",
          "type": "string"
        }
      ],
      "stateMutability": "view",
      "type": "function",
      "constant": true
    },
    {
      "inputs": [
        {
          "internalType": "uint256",
          "name": "",
          "type": "uint256"
        }
      ],
      "name": "tokenIdToStarInfo",
      "outputs": [
        {
          "internalType": "string",
          "name": "name",
          "type": "string"
        }
      ],
      "stateMutability": "view",
      "type": "function",
      "constant": true
    },
    {
      "inputs": [
        {
          "internalType": "uint256",
          "name": "tokenId",
          "type": "uint256"
        }
      ],
      "name": "tokenURI",
      "outputs": [
        {
          "internalType": "string",
          "name": "",
          "type": "string"
        }
      ],
      "stateMutability": "view",
      "type": "function",
      "constant": true
    },
    {
      "inputs": [
        {
          "internalType": "address",
          "name": "from",
          "type": "address"
        },
        {
          "internalType": "address",
          "name": "to",
          "type": "address"
        },
        {
          "internalType": "uint256",
          "name": "tokenId",
          "type": "uint256"
        }
      ],
      "name": "transferFrom",
      "outputs": [],
      "stateMutability": "nonpayable",
      "type": "function"
    },
    {
      "inputs": [
        {
          "internalType": "string",
          "name": "_name",
          "type": "string"
        },
        {
          "internalType": "uint256",
          "name": "_tokenId",
          "type": "uint256"
        }
      ],
      "name": "createStar",
      "outputs": [],
      "stateMutability": "nonpayable",
      "type": "function"
    },
    {
      "inputs": [
        {
          "internalType": "uint256",
          "name": "_tokenId",
          "type": "uint256"
        },
        {
          "internalType": "uint256",
          "name": "_price",
          "type": "uint256"
        }
      ],
      "name": "putStarUpForSale",
      "outputs": [],
      "stateMutability": "nonpayable",
      "type": "function"
    },
    {
      "inputs": [
        {
          "internalType": "uint256",
          "name": "_tokenId",
          "type": "uint256"
        }
      ],
      "name": "buyStar",
      "outputs": [],
      "stateMutability": "payable",
      "type": "function",
      "payable": true
    },
    {
      "inputs": [
        {
          "internalType": "uint256",
          "name": "_tokenId",
          "type": "uint256"
        }
      ],
      "name": "lookUptokenIdToStarInfo",
      "outputs": [
        {
          "internalType": "string",
          "name": "",
          "type": "string"
        }
      ],
      "stateMutability": "view",
      "type": "function",
      "constant": true
    },
    {
      "inputs": [
        {
          "internalType": "uint256",
          "name": "_tokenId1",
          "type": "uint256"
        },
        {
          "internalType": "uint256",
          "name": "_tokenId2",
          "type": "uint256"
        }
      ],
      "name": "exchangeStars",
      "outputs": [],
      "stateMutability": "nonpayable",
      "type": "function"
    },
    {
      "inputs": [
        {
          "internalType": "address",
          "name": "_to1",
          "type": "address"
        },
        {
          "internalType": "uint256",
          "name": "_tokenId",
          "type": "uint256"
        }
      ],
      "name": "transferStar",
      "outputs": [],
      "stateMutability": "nonpayable",
      "type": "function"
    }
  ],
  "bytecode": "0x60806040523480156200001157600080fd5b506040518060400160405280600681526020017f56435374617200000000000000000000000000000000000000000000000000008152506040518060400160405280600381526020017f5643530000000000000000000000000000000000000000000000000000000000815250816000908051906020019062000096929190620000b8565b508060019080519060200190620000af929190620000b8565b505050620001cc565b828054620000c69062000197565b90600052602060002090601f016020900481019282620000ea576000855562000136565b82601f106200010557805160ff191683800117855562000136565b8280016001018555821562000136579182015b828111156200013557825182559160200191906001019062000118565b5b50905062000145919062000149565b5090565b5b80821115620001645760008160009055506001016200014a565b5090565b7f4e487b7100000000000000000000000000000000000000000000000000000000600052602260045260246000fd5b60006002820490506001821680620001b057607f821691505b602082108103620001c657620001c562000168565b5b50919050565b61327e80620001dc6000396000f3fe60806040526004361061012a5760003560e01c806342842e0e116100ab578063a22cb4651161006f578063a22cb46514610405578063b88d4fde1461042e578063c87b56dd14610457578063d7830ccb14610494578063e7152a5c146104d1578063e985e9c5146104fa5761012a565b806342842e0e1461030e5780636352211e1461033757806370a082311461037457806395d89b41146103b15780639697c0a1146103dc5761012a565b806315e0afa5116100f257806315e0afa51461023a5780631967fd981461026357806323b872dd146102a05780632f1c34ef146102c9578063316a4361146102e55761012a565b806301ffc9a71461012f5780630564b1301461016c57806306fdde03146101a9578063081812fc146101d4578063095ea7b314610211575b600080fd5b34801561013b57600080fd5b5061015660048036038101906101519190611e5e565b610537565b6040516101639190611ea6565b60405180910390f35b34801561017857600080fd5b50610193600480360381019061018e9190611ef7565b610619565b6040516101a09190611f33565b60405180910390f35b3480156101b557600080fd5b506101be610631565b6040516101cb9190611fe7565b60405180910390f35b3480156101e057600080fd5b506101fb60048036038101906101f69190611ef7565b6106c3565b604051610208919061204a565b60405180910390f35b34801561021d57600080fd5b5061023860048036038101906102339190612091565b610748565b005b34801561024657600080fd5b50610261600480360381019061025c91906120d1565b61085f565b005b34801561026f57600080fd5b5061028a60048036038101906102859190611ef7565b610939565b6040516102979190611fe7565b60405180910390f35b3480156102ac57600080fd5b506102c760048036038101906102c29190612111565b6109df565b005b6102e360048036038101906102de9190611ef7565b610a3f565b005b3480156102f157600080fd5b5061030c600480360381019061030791906120d1565b610bbc565b005b34801561031a57600080fd5b5061033560048036038101906103309190612111565b610c4e565b005b34801561034357600080fd5b5061035e60048036038101906103599190611ef7565b610c6e565b60405161036b919061204a565b60405180910390f35b34801561038057600080fd5b5061039b60048036038101906103969190612164565b610d1f565b6040516103a89190611f33565b60405180910390f35b3480156103bd57600080fd5b506103c6610dd6565b6040516103d39190611fe7565b60405180910390f35b3480156103e857600080fd5b5061040360048036038101906103fe91906122c6565b610e68565b005b34801561041157600080fd5b5061042c6004803603810190610427919061234e565b610ebe565b005b34801561043a57600080fd5b506104556004803603810190610450919061242f565b610ed4565b005b34801561046357600080fd5b5061047e60048036038101906104799190611ef7565b610f36565b60405161048b9190611fe7565b60405180910390f35b3480156104a057600080fd5b506104bb60048036038101906104b69190611ef7565b610fdd565b6040516104c89190611fe7565b60405180910390f35b3480156104dd57600080fd5b506104f860048036038101906104f39190612091565b611085565b005b34801561050657600080fd5b50610521600480360381019061051c91906124b2565b61110a565b60405161052e9190611ea6565b60405180910390f35b60007f80ac58cd000000000000000000000000000000000000000000000000000000007bffffffffffffffffffffffffffffffffffffffffffffffffffffffff1916827bffffffffffffffffffffffffffffffffffffffffffffffffffffffff1916148061060257507f5b5e139f000000000000000000000000000000000000000000000000000000007bffffffffffffffffffffffffffffffffffffffffffffffffffffffff1916827bffffffffffffffffffffffffffffffffffffffffffffffffffffffff1916145b8061061257506106118261119e565b5b9050919050565b60076020528060005260406000206000915090505481565b60606000805461064090612521565b80601f016020809104026020016040519081016040528092919081815260200182805461066c90612521565b80156106b95780601f1061068e576101008083540402835291602001916106b9565b820191906000526020600020905b81548152906001019060200180831161069c57829003601f168201915b5050505050905090565b60006106ce82611208565b61070d576040517f08c379a0000000000000000000000000000000000000000000000000000000008152600401610704906125c4565b60405180910390fd5b6004600083815260200190815260200160002060009054906101000a900473ffffffffffffffffffffffffffffffffffffffff169050919050565b600061075382610c6e565b90508073ffffffffffffffffffffffffffffffffffffffff168373ffffffffffffffffffffffffffffffffffffffff16036107c3576040517f08c379a00000000000000000000000000000000000000000000000000000000081526004016107ba90612656565b60405180910390fd5b8073ffffffffffffffffffffffffffffffffffffffff166107e2611274565b73ffffffffffffffffffffffffffffffffffffffff16148061081157506108108161080b611274565b61110a565b5b610850576040517f08c379a0000000000000000000000000000000000000000000000000000000008152600401610847906126e8565b60405180910390fd5b61085a838361127c565b505050565b600061086a83610c6e565b9050600061087783610c6e565b90503373ffffffffffffffffffffffffffffffffffffffff168273ffffffffffffffffffffffffffffffffffffffff1614806108de57503373ffffffffffffffffffffffffffffffffffffffff168173ffffffffffffffffffffffffffffffffffffffff16145b61091d576040517f08c379a000000000000000000000000000000000000000000000000000000000815260040161091490612754565b60405180910390fd5b610928828286611335565b610933818385611335565b50505050565b600660205280600052604060002060009150905080600001805461095c90612521565b80601f016020809104026020016040519081016040528092919081815260200182805461098890612521565b80156109d55780601f106109aa576101008083540402835291602001916109d5565b820191906000526020600020905b8154815290600101906020018083116109b857829003601f168201915b5050505050905081565b6109f06109ea611274565b8261159b565b610a2f576040517f08c379a0000000000000000000000000000000000000000000000000000000008152600401610a26906127e6565b60405180910390fd5b610a3a838383611335565b505050565b6000600760008381526020019081526020016000205411610a95576040517f08c379a0000000000000000000000000000000000000000000000000000000008152600401610a8c90612852565b60405180910390fd5b6000600760008381526020019081526020016000205490506000610ab883610c6e565b9050813411610afc576040517f08c379a0000000000000000000000000000000000000000000000000000000008152600401610af3906128be565b60405180910390fd5b610b07813385611335565b6000610b1282611679565b90508073ffffffffffffffffffffffffffffffffffffffff166108fc849081150290604051600060405180830381858888f19350505050158015610b5a573d6000803e3d6000fd5b5082341115610bb6573373ffffffffffffffffffffffffffffffffffffffff166108fc8434610b89919061290d565b9081150290604051600060405180830381858888f19350505050158015610bb4573d6000803e3d6000fd5b505b50505050565b3373ffffffffffffffffffffffffffffffffffffffff16610bdc83610c6e565b73ffffffffffffffffffffffffffffffffffffffff1614610c32576040517f08c379a0000000000000000000000000000000000000000000000000000000008152600401610c29906129b3565b60405180910390fd5b8060076000848152602001908152602001600020819055505050565b610c6983838360405180602001604052806000815250610ed4565b505050565b6000806002600084815260200190815260200160002060009054906101000a900473ffffffffffffffffffffffffffffffffffffffff169050600073ffffffffffffffffffffffffffffffffffffffff168173ffffffffffffffffffffffffffffffffffffffff1603610d16576040517f08c379a0000000000000000000000000000000000000000000000000000000008152600401610d0d90612a45565b60405180910390fd5b80915050919050565b60008073ffffffffffffffffffffffffffffffffffffffff168273ffffffffffffffffffffffffffffffffffffffff1603610d8f576040517f08c379a0000000000000000000000000000000000000000000000000000000008152600401610d8690612ad7565b60405180910390fd5b600360008373ffffffffffffffffffffffffffffffffffffffff1673ffffffffffffffffffffffffffffffffffffffff168152602001908152602001600020549050919050565b606060018054610de590612521565b80601f0160208091040260200160405190810160405280929190818152602001828054610e1190612521565b8015610e5e5780601f10610e3357610100808354040283529160200191610e5e565b820191906000526020600020905b815481529060010190602001808311610e4157829003601f168201915b5050505050905090565b6000604051806020016040528084815250905080600660008481526020019081526020016000206000820151816000019080519060200190610eab929190611d4f565b50905050610eb93383611683565b505050565b610ed0610ec9611274565b838361185c565b5050565b610ee5610edf611274565b8361159b565b610f24576040517f08c379a0000000000000000000000000000000000000000000000000000000008152600401610f1b906127e6565b60405180910390fd5b610f30848484846119c8565b50505050565b6060610f4182611208565b610f80576040517f08c379a0000000000000000000000000000000000000000000000000000000008152600401610f7790612b69565b60405180910390fd5b6000610f8a611a24565b90506000815111610faa5760405180602001604052806000815250610fd5565b80610fb484611a3b565b604051602001610fc5929190612bc5565b6040516020818303038152906040525b915050919050565b606060066000838152602001908152602001600020600001805461100090612521565b80601f016020809104026020016040519081016040528092919081815260200182805461102c90612521565b80156110795780601f1061104e57610100808354040283529160200191611079565b820191906000526020600020905b81548152906001019060200180831161105c57829003601f168201915b50505050509050919050565b3373ffffffffffffffffffffffffffffffffffffffff166110a582610c6e565b73ffffffffffffffffffffffffffffffffffffffff16146110fb576040517f08c379a00000000000000000000000000000000000000000000000000000000081526004016110f290612c5b565b60405180910390fd5b6111063383836109df565b5050565b6000600560008473ffffffffffffffffffffffffffffffffffffffff1673ffffffffffffffffffffffffffffffffffffffff16815260200190815260200160002060008373ffffffffffffffffffffffffffffffffffffffff1673ffffffffffffffffffffffffffffffffffffffff16815260200190815260200160002060009054906101000a900460ff16905092915050565b60007f01ffc9a7000000000000000000000000000000000000000000000000000000007bffffffffffffffffffffffffffffffffffffffffffffffffffffffff1916827bffffffffffffffffffffffffffffffffffffffffffffffffffffffff1916149050919050565b60008073ffffffffffffffffffffffffffffffffffffffff166002600084815260200190815260200160002060009054906101000a900473ffffffffffffffffffffffffffffffffffffffff1673ffffffffffffffffffffffffffffffffffffffff1614159050919050565b600033905090565b816004600083815260200190815260200160002060006101000a81548173ffffffffffffffffffffffffffffffffffffffff021916908373ffffffffffffffffffffffffffffffffffffffff160217905550808273ffffffffffffffffffffffffffffffffffffffff166112ef83610c6e565b73ffffffffffffffffffffffffffffffffffffffff167f8c5be1e5ebec7d5bd14f71427d1e84f3dd0314c0f7b2291e5b200ac8c7c3b92560405160405180910390a45050565b8273ffffffffffffffffffffffffffffffffffffffff1661135582610c6e565b73ffffffffffffffffffffffffffffffffffffffff16146113ab576040517f08c379a00000000000000000000000000000000000000000000000000000000081526004016113a290612ced565b60405180910390fd5b600073ffffffffffffffffffffffffffffffffffffffff168273ffffffffffffffffffffffffffffffffffffffff160361141a576040517f08c379a000000000000000000000000000000000000000000000000000000000815260040161141190612d7f565b60405180910390fd5b611425838383611b9b565b61143060008261127c565b6001600360008573ffffffffffffffffffffffffffffffffffffffff1673ffffffffffffffffffffffffffffffffffffffff1681526020019081526020016000206000828254611480919061290d565b925050819055506001600360008473ffffffffffffffffffffffffffffffffffffffff1673ffffffffffffffffffffffffffffffffffffffff16815260200190815260200160002060008282546114d79190612d9f565b92505081905550816002600083815260200190815260200160002060006101000a81548173ffffffffffffffffffffffffffffffffffffffff021916908373ffffffffffffffffffffffffffffffffffffffff160217905550808273ffffffffffffffffffffffffffffffffffffffff168473ffffffffffffffffffffffffffffffffffffffff167fddf252ad1be2c89b69c2b068fc378daa952ba7f163c4a11628f55a4df523b3ef60405160405180910390a4611596838383611ba0565b505050565b60006115a682611208565b6115e5576040517f08c379a00000000000000000000000000000000000000000000000000000000081526004016115dc90612e67565b60405180910390fd5b60006115f083610c6e565b90508073ffffffffffffffffffffffffffffffffffffffff168473ffffffffffffffffffffffffffffffffffffffff1614806116325750611631818561110a565b5b8061167057508373ffffffffffffffffffffffffffffffffffffffff16611658846106c3565b73ffffffffffffffffffffffffffffffffffffffff16145b91505092915050565b6000819050919050565b600073ffffffffffffffffffffffffffffffffffffffff168273ffffffffffffffffffffffffffffffffffffffff16036116f2576040517f08c379a00000000000000000000000000000000000000000000000000000000081526004016116e990612ed3565b60405180910390fd5b6116fb81611208565b1561173b576040517f08c379a000000000000000000000000000000000000000000000000000000000815260040161173290612f3f565b60405180910390fd5b61174760008383611b9b565b6001600360008473ffffffffffffffffffffffffffffffffffffffff1673ffffffffffffffffffffffffffffffffffffffff16815260200190815260200160002060008282546117979190612d9f565b92505081905550816002600083815260200190815260200160002060006101000a81548173ffffffffffffffffffffffffffffffffffffffff021916908373ffffffffffffffffffffffffffffffffffffffff160217905550808273ffffffffffffffffffffffffffffffffffffffff16600073ffffffffffffffffffffffffffffffffffffffff167fddf252ad1be2c89b69c2b068fc378daa952ba7f163c4a11628f55a4df523b3ef60405160405180910390a461185860008383611ba0565b5050565b8173ffffffffffffffffffffffffffffffffffffffff168373ffffffffffffffffffffffffffffffffffffffff16036118ca576040517f08c379a00000000000000000000000000000000000000000000000000000000081526004016118c190612fab565b60405180910390fd5b80600560008573ffffffffffffffffffffffffffffffffffffffff1673ffffffffffffffffffffffffffffffffffffffff16815260200190815260200160002060008473ffffffffffffffffffffffffffffffffffffffff1673ffffffffffffffffffffffffffffffffffffffff16815260200190815260200160002060006101000a81548160ff0219169083151502179055508173ffffffffffffffffffffffffffffffffffffffff168373ffffffffffffffffffffffffffffffffffffffff167f17307eab39ab6107e8899845ad3d59bd9653f200f220920489ca2b5937696c31836040516119bb9190611ea6565b60405180910390a3505050565b6119d3848484611335565b6119df84848484611ba5565b611a1e576040517f08c379a0000000000000000000000000000000000000000000000000000000008152600401611a159061303d565b60405180910390fd5b50505050565b606060405180602001604052806000815250905090565b606060008203611a82576040518060400160405280600181526020017f30000000000000000000000000000000000000000000000000000000000000008152509050611b96565b600082905060005b60008214611ab4578080611a9d9061305d565b915050600a82611aad91906130d4565b9150611a8a565b60008167ffffffffffffffff811115611ad057611acf61219b565b5b6040519080825280601f01601f191660200182016040528015611b025781602001600182028036833780820191505090505b5090505b60008514611b8f57600182611b1b919061290d565b9150600a85611b2a9190613105565b6030611b369190612d9f565b60f81b818381518110611b4c57611b4b613136565b5b60200101907effffffffffffffffffffffffffffffffffffffffffffffffffffffffffffff1916908160001a905350600a85611b8891906130d4565b9450611b06565b8093505050505b919050565b505050565b505050565b6000611bc68473ffffffffffffffffffffffffffffffffffffffff16611d2c565b15611d1f578373ffffffffffffffffffffffffffffffffffffffff1663150b7a02611bef611274565b8786866040518563ffffffff1660e01b8152600401611c1194939291906131ba565b6020604051808303816000875af1925050508015611c4d57506040513d601f19601f82011682018060405250810190611c4a919061321b565b60015b611ccf573d8060008114611c7d576040519150601f19603f3d011682016040523d82523d6000602084013e611c82565b606091505b506000815103611cc7576040517f08c379a0000000000000000000000000000000000000000000000000000000008152600401611cbe9061303d565b60405180910390fd5b805181602001fd5b63150b7a0260e01b7bffffffffffffffffffffffffffffffffffffffffffffffffffffffff1916817bffffffffffffffffffffffffffffffffffffffffffffffffffffffff191614915050611d24565b600190505b949350505050565b6000808273ffffffffffffffffffffffffffffffffffffffff163b119050919050565b828054611d5b90612521565b90600052602060002090601f016020900481019282611d7d5760008555611dc4565b82601f10611d9657805160ff1916838001178555611dc4565b82800160010185558215611dc4579182015b82811115611dc3578251825591602001919060010190611da8565b5b509050611dd19190611dd5565b5090565b5b80821115611dee576000816000905550600101611dd6565b5090565b6000604051905090565b600080fd5b600080fd5b60007fffffffff0000000000000000000000000000000000000000000000000000000082169050919050565b611e3b81611e06565b8114611e4657600080fd5b50565b600081359050611e5881611e32565b92915050565b600060208284031215611e7457611e73611dfc565b5b6000611e8284828501611e49565b91505092915050565b60008115159050919050565b611ea081611e8b565b82525050565b6000602082019050611ebb6000830184611e97565b92915050565b6000819050919050565b611ed481611ec1565b8114611edf57600080fd5b50565b600081359050611ef181611ecb565b92915050565b600060208284031215611f0d57611f0c611dfc565b5b6000611f1b84828501611ee2565b91505092915050565b611f2d81611ec1565b82525050565b6000602082019050611f486000830184611f24565b92915050565b600081519050919050565b600082825260208201905092915050565b60005b83811015611f88578082015181840152602081019050611f6d565b83811115611f97576000848401525b50505050565b6000601f19601f8301169050919050565b6000611fb982611f4e565b611fc38185611f59565b9350611fd3818560208601611f6a565b611fdc81611f9d565b840191505092915050565b600060208201905081810360008301526120018184611fae565b905092915050565b600073ffffffffffffffffffffffffffffffffffffffff82169050919050565b600061203482612009565b9050919050565b61204481612029565b82525050565b600060208201905061205f600083018461203b565b92915050565b61206e81612029565b811461207957600080fd5b50565b60008135905061208b81612065565b92915050565b600080604083850312156120a8576120a7611dfc565b5b60006120b68582860161207c565b92505060206120c785828601611ee2565b9150509250929050565b600080604083850312156120e8576120e7611dfc565b5b60006120f685828601611ee2565b925050602061210785828601611ee2565b9150509250929050565b60008060006060848603121561212a57612129611dfc565b5b60006121388682870161207c565b93505060206121498682870161207c565b925050604061215a86828701611ee2565b9150509250925092565b60006020828403121561217a57612179611dfc565b5b60006121888482850161207c565b91505092915050565b600080fd5b600080fd5b7f4e487b7100000000000000000000000000000000000000000000000000000000600052604160045260246000fd5b6121d382611f9d565b810181811067ffffffffffffffff821117156121f2576121f161219b565b5b80604052505050565b6000612205611df2565b905061221182826121ca565b919050565b600067ffffffffffffffff8211156122315761223061219b565b5b61223a82611f9d565b9050602081019050919050565b82818337600083830152505050565b600061226961226484612216565b6121fb565b90508281526020810184848401111561228557612284612196565b5b612290848285612247565b509392505050565b600082601f8301126122ad576122ac612191565b5b81356122bd848260208601612256565b91505092915050565b600080604083850312156122dd576122dc611dfc565b5b600083013567ffffffffffffffff8111156122fb576122fa611e01565b5b61230785828601612298565b925050602061231885828601611ee2565b9150509250929050565b61232b81611e8b565b811461233657600080fd5b50565b60008135905061234881612322565b92915050565b6000806040838503121561236557612364611dfc565b5b60006123738582860161207c565b925050602061238485828601612339565b9150509250929050565b600067ffffffffffffffff8211156123a9576123a861219b565b5b6123b282611f9d565b9050602081019050919050565b60006123d26123cd8461238e565b6121fb565b9050828152602081018484840111156123ee576123ed612196565b5b6123f9848285612247565b509392505050565b600082601f83011261241657612415612191565b5b81356124268482602086016123bf565b91505092915050565b6000806000806080858703121561244957612448611dfc565b5b60006124578782880161207c565b94505060206124688782880161207c565b935050604061247987828801611ee2565b925050606085013567ffffffffffffffff81111561249a57612499611e01565b5b6124a687828801612401565b91505092959194509250565b600080604083850312156124c9576124c8611dfc565b5b60006124d78582860161207c565b92505060206124e88582860161207c565b9150509250929050565b7f4e487b7100000000000000000000000000000000000000000000000000000000600052602260045260246000fd5b6000600282049050600182168061253957607f821691505b60208210810361254c5761254b6124f2565b5b50919050565b7f4552433732313a20617070726f76656420717565727920666f72206e6f6e657860008201527f697374656e7420746f6b656e0000000000000000000000000000000000000000602082015250565b60006125ae602c83611f59565b91506125b982612552565b604082019050919050565b600060208201905081810360008301526125dd816125a1565b9050919050565b7f4552433732313a20617070726f76616c20746f2063757272656e74206f776e6560008201527f7200000000000000000000000000000000000000000000000000000000000000602082015250565b6000612640602183611f59565b915061264b826125e4565b604082019050919050565b6000602082019050818103600083015261266f81612633565b9050919050565b7f4552433732313a20617070726f76652063616c6c6572206973206e6f74206f7760008201527f6e6572206e6f7220617070726f76656420666f7220616c6c0000000000000000602082015250565b60006126d2603883611f59565b91506126dd82612676565b604082019050919050565b60006020820190508181036000830152612701816126c5565b9050919050565b7f596f75206861766520746f20626520612073746172206f776e65720000000000600082015250565b600061273e601b83611f59565b915061274982612708565b602082019050919050565b6000602082019050818103600083015261276d81612731565b9050919050565b7f4552433732313a207472616e736665722063616c6c6572206973206e6f74206f60008201527f776e6572206e6f7220617070726f766564000000000000000000000000000000602082015250565b60006127d0603183611f59565b91506127db82612774565b604082019050919050565b600060208201905081810360008301526127ff816127c3565b9050919050565b7f54686520537461722073686f756c6420626520757020666f722073616c650000600082015250565b600061283c601e83611f59565b915061284782612806565b602082019050919050565b6000602082019050818103600083015261286b8161282f565b9050919050565b7f596f75206e65656420746f206861766520656e6f756768204574686572000000600082015250565b60006128a8601d83611f59565b91506128b382612872565b602082019050919050565b600060208201905081810360008301526128d78161289b565b9050919050565b7f4e487b7100000000000000000000000000000000000000000000000000000000600052601160045260246000fd5b600061291882611ec1565b915061292383611ec1565b925082821015612936576129356128de565b5b828203905092915050565b7f596f752063616e27742073616c6520746865205374617220796f7520646f6e2760008201527f74206f776e656400000000000000000000000000000000000000000000000000602082015250565b600061299d602783611f59565b91506129a882612941565b604082019050919050565b600060208201905081810360008301526129cc81612990565b9050919050565b7f4552433732313a206f776e657220717565727920666f72206e6f6e657869737460008201527f656e7420746f6b656e0000000000000000000000000000000000000000000000602082015250565b6000612a2f602983611f59565b9150612a3a826129d3565b604082019050919050565b60006020820190508181036000830152612a5e81612a22565b9050919050565b7f4552433732313a2062616c616e636520717565727920666f7220746865207a6560008201527f726f206164647265737300000000000000000000000000000000000000000000602082015250565b6000612ac1602a83611f59565b9150612acc82612a65565b604082019050919050565b60006020820190508181036000830152612af081612ab4565b9050919050565b7f4552433732314d657461646174613a2055524920717565727920666f72206e6f60008201527f6e6578697374656e7420746f6b656e0000000000000000000000000000000000602082015250565b6000612b53602f83611f59565b9150612b5e82612af7565b604082019050919050565b60006020820190508181036000830152612b8281612b46565b9050919050565b600081905092915050565b6000612b9f82611f4e565b612ba98185612b89565b9350612bb9818560208601611f6a565b80840191505092915050565b6000612bd18285612b94565b9150612bdd8284612b94565b91508190509392505050565b7f596f75206861766520746f206f776e20746865207374617220746f206265206160008201527f626c6520746f207472616e736665722069740000000000000000000000000000602082015250565b6000612c45603283611f59565b9150612c5082612be9565b604082019050919050565b60006020820190508181036000830152612c7481612c38565b9050919050565b7f4552433732313a207472616e736665722066726f6d20696e636f72726563742060008201527f6f776e6572000000000000000000000000000000000000000000000000000000602082015250565b6000612cd7602583611f59565b9150612ce282612c7b565b604082019050919050565b60006020820190508181036000830152612d0681612cca565b9050919050565b7f4552433732313a207472616e7366657220746f20746865207a65726f2061646460008201527f7265737300000000000000000000000000000000000000000000000000000000602082015250565b6000612d69602483611f59565b9150612d7482612d0d565b604082019050919050565b60006020820190508181036000830152612d9881612d5c565b9050919050565b6000612daa82611ec1565b9150612db583611ec1565b9250827fffffffffffffffffffffffffffffffffffffffffffffffffffffffffffffffff03821115612dea57612de96128de565b5b828201905092915050565b7f4552433732313a206f70657261746f7220717565727920666f72206e6f6e657860008201527f697374656e7420746f6b656e0000000000000000000000000000000000000000602082015250565b6000612e51602c83611f59565b9150612e5c82612df5565b604082019050919050565b60006020820190508181036000830152612e8081612e44565b9050919050565b7f4552433732313a206d696e7420746f20746865207a65726f2061646472657373600082015250565b6000612ebd602083611f59565b9150612ec882612e87565b602082019050919050565b60006020820190508181036000830152612eec81612eb0565b9050919050565b7f4552433732313a20746f6b656e20616c7265616479206d696e74656400000000600082015250565b6000612f29601c83611f59565b9150612f3482612ef3565b602082019050919050565b60006020820190508181036000830152612f5881612f1c565b9050919050565b7f4552433732313a20617070726f766520746f2063616c6c657200000000000000600082015250565b6000612f95601983611f59565b9150612fa082612f5f565b602082019050919050565b60006020820190508181036000830152612fc481612f88565b9050919050565b7f4552433732313a207472616e7366657220746f206e6f6e20455243373231526560008201527f63656976657220696d706c656d656e7465720000000000000000000000000000602082015250565b6000613027603283611f59565b915061303282612fcb565b604082019050919050565b600060208201905081810360008301526130568161301a565b9050919050565b600061306882611ec1565b91507fffffffffffffffffffffffffffffffffffffffffffffffffffffffffffffffff820361309a576130996128de565b5b600182019050919050565b7f4e487b7100000000000000000000000000000000000000000000000000000000600052601260045260246000fd5b60006130df82611ec1565b91506130ea83611ec1565b9250826130fa576130f96130a5565b5b828204905092915050565b600061311082611ec1565b915061311b83611ec1565b92508261312b5761312a6130a5565b5b828206905092915050565b7f4e487b7100000000000000000000000000000000000000000000000000000000600052603260045260246000fd5b600081519050919050565b600082825260208201905092915050565b600061318c82613165565b6131968185613170565b93506131a6818560208601611f6a565b6131af81611f9d565b840191505092915050565b60006080820190506131cf600083018761203b565b6131dc602083018661203b565b6131e96040830185611f24565b81810360608301526131fb8184613181565b905095945050505050565b60008151905061321581611e32565b92915050565b60006020828403121561323157613230611dfc565b5b600061323f84828501613206565b9150509291505056fea2646970667358221220cdf9ef920f95ad963301e0175085aec8cd84ccf258fc47a45dedc52f5bff4d9764736f6c634300080d0033",
  "immutableReferences": {},
  "source": "//SPDX-License-Identifier: CC BY-NC-ND 4.0\n\npragma solidity >=0.4.24;\n\n//Importing openzeppelin-solidity ERC-721 implemented Standard\nimport \"../app/node_modules/openzeppelin-solidity/contracts/token/ERC721/ERC721.sol\";\n\n// StarNotary Contract declaration inheritance the ERC721 openzeppelin implementation\ncontract StarNotary is ERC721 {\n\n    // Star data\n    struct Star {\n        string name;\n    }\n\n    // Implement Task 1 Add a name and symbol properties\n    // name: Is a short name to your token\n    // symbol: Is a short string like 'USD' -> 'American Dollar'\n    \n    //Declare a constructor\n    constructor() ERC721(\"VCStar\", \"VCS\"){ \n\n    }\n\n    // mapping the Star with the Owner Address\n    mapping(uint256 => Star) public tokenIdToStarInfo;\n    // mapping the TokenId and price\n    mapping(uint256 => uint256) public starsForSale;\n\n    // Create Star using the Struct\n    function createStar(string memory _name, uint256 _tokenId) public { // Passing the name and tokenId as a parameters\n        Star memory newStar = Star(_name); // Star is an struct so we are creating a new Star\n        tokenIdToStarInfo[_tokenId] = newStar; // Creating in memory the Star -> tokenId mapping\n        _mint(msg.sender, _tokenId); // _mint assign the the star with _tokenId to the sender address (ownership)\n    }\n\n    // Putting an Star for sale (Adding the star tokenid into the mapping starsForSale, first verify that the sender is the owner)\n    function putStarUpForSale(uint256 _tokenId, uint256 _price) public {\n        require(ownerOf(_tokenId) == msg.sender, \"You can't sale the Star you don't owned\");\n        starsForSale[_tokenId] = _price;\n    }\n\n\n    // Function that allows you to convert an address into a payable address\n    function _make_payable(address x) internal pure returns (address payable) {\n        return payable(address(uint160(x)));\n    }\n\n    function buyStar(uint256 _tokenId) public  payable {\n        require(starsForSale[_tokenId] > 0, \"The Star should be up for sale\");\n        uint256 starCost = starsForSale[_tokenId];\n        address ownerAddress = ownerOf(_tokenId);\n        require(msg.value > starCost, \"You need to have enough Ether\");\n        _transfer(ownerAddress, payable(msg.sender), _tokenId); // We can't use _addTokenTo or_removeTokenFrom functions, now we have to use _transferFrom\n        address payable ownerAddressPayable = _make_payable(ownerAddress); // We need to make this conversion to be able to use transfer() function to transfer ethers\n        ownerAddressPayable.transfer(starCost);\n        if(msg.value > starCost) {\n            payable(msg.sender).transfer(msg.value - starCost);\n        }\n    }\n\n    // Implement Task 1 lookUptokenIdToStarInfo\n    function lookUptokenIdToStarInfo (uint _tokenId) public view returns (string memory) {\n        //1. You should return the Star saved in tokenIdToStarInfo mapping\n        return tokenIdToStarInfo[_tokenId].name;\n    }\n\n    // Implement Task 1 Exchange Stars function\n    function exchangeStars(uint256 _tokenId1, uint256 _tokenId2) public {\n        //1. Passing to star tokenId you will need to check if the owner of _tokenId1 or _tokenId2 is the sender\n        //2. You don't have to check for the price of the token (star)\n        //3. Get the owner of the two tokens (ownerOf(_tokenId1), ownerOf(_tokenId2)\n        //4. Use _transferFrom function to exchange the tokens.\n\n        //obtain the owner of the tokens\n        address o1 = ownerOf(_tokenId1);\n        address o2 = ownerOf(_tokenId2);\n\n        //ensures that one of the users is the owner of the star\n        require(o1 == msg.sender || o2 == msg.sender, \"You have to be a star owner\");\n        \n        //transfer token1 to owner 2 and token2 to owner 1\n        _transfer(o1, o2, _tokenId1);\n        _transfer(o2, o1, _tokenId2);\n    }\n\n    // Implement Task 1 Transfer Stars\n    function transferStar(address _to1, uint256 _tokenId) public {\n        //1. Check if the sender is the ownerOf(_tokenId)\n        //2. Use the transferFrom(from, to, tokenId); function to transfer the Star\n\n        //checking if sender is the owner\n        require(ownerOf(_tokenId) == msg.sender, \"You have to own the star to be able to transfer it\");\n\n        //transfer the star token \n        transferFrom(msg.sender, _to1, _tokenId);\n\n    }\n\n}\n",
  "sourcePath": "C:\\Users\\lukev\\OneDrive\\Desktop\\LVC_latest\\contracts\\StarNotary.sol",
  "compiler": {
    "name": "solc",
    "version": "0.8.13+commit.abaa5c0e.Emscripten.clang"
  },
  "schemaVersion": "3.4.8",
  "updatedAt": "2022-07-16T13:02:48.387Z",
  "networkType": "ethereum",
  "devdoc": {
    "kind": "dev",
    "methods": {
      "approve(address,uint256)": {
        "details": "See {IERC721-approve}."
      },
      "balanceOf(address)": {
        "details": "See {IERC721-balanceOf}."
      },
      "getApproved(uint256)": {
        "details": "See {IERC721-getApproved}."
      },
      "isApprovedForAll(address,address)": {
        "details": "See {IERC721-isApprovedForAll}."
      },
      "name()": {
        "details": "See {IERC721Metadata-name}."
      },
      "ownerOf(uint256)": {
        "details": "See {IERC721-ownerOf}."
      },
      "safeTransferFrom(address,address,uint256)": {
        "details": "See {IERC721-safeTransferFrom}."
      },
      "safeTransferFrom(address,address,uint256,bytes)": {
        "details": "See {IERC721-safeTransferFrom}."
      },
      "setApprovalForAll(address,bool)": {
        "details": "See {IERC721-setApprovalForAll}."
      },
      "supportsInterface(bytes4)": {
        "details": "See {IERC165-supportsInterface}."
      },
      "symbol()": {
        "details": "See {IERC721Metadata-symbol}."
      },
      "tokenURI(uint256)": {
        "details": "See {IERC721Metadata-tokenURI}."
      },
      "transferFrom(address,address,uint256)": {
        "details": "See {IERC721-transferFrom}."
      }
    },
    "version": 1
  },
  "userdoc": {
    "kind": "user",
    "methods": {},
    "version": 1
  }
}